:03000000020B7B75
:0C0B7B00787FE4F6D8FD75811F02089712
:0E0B5F008FA0D282D283120B05C283020B0537
:0E0B6D008FA0C282D283120B05C283020B0539
:100AF1007F38120B6D7F01120B6D7F80120B6D7FA2
:040B01000E020B6D68
:100A3E008B158A168917AB15AA16A9171209FFFF6F
:100A4E006010120B5F74012517F517E43516F516B5
:030A5E0080E4220F
:0E0B0500E4FFFE0FBF00010EEF64324E70F5EC
:010B130022BF
:0E0B1400E4FFFE0FBF00010EBE01F8BFF4F5B6
:010B220022B0
:100AA400446174653A007375006D6E007475007767
:0B0AB40065007468006672007361004A
:10089700120AF1120B327FD012091A8F08120B5F5E
:1008A700E4FF12091A7F2D120AD912091A7F3B1287
:1008B7000AD912091A7F0B120AD912091A120B4107
:1008C700120B327FD012091AE4FF12091A120B32E7
:1008D7007FD112091A120A188F09120B50120A181F
:1008E7008F0A120B50120A188F0B7F80120B6DAFF5
:1008F7000B120ABF120A837F3A120B5FAF0A120A62
:10090700BF120A837F3A120B5FAF09120ABF120A9E
:030917008380AD2D
:100A6100EF541FF51EEF5420F51FB420047F418081
:100A710006E51F70057F50120B5F7F6D120B5FAF94
:010A81001E56
:010A82002251
:0F0B2300C281D280120B05D281120B05C2802233
:100A1800E4F51CF51BE51C25E0F51CA281E4334236
:100A28001CD280120B05C280051BC3E51B64809491
:050A38008840E2AF1C44
:010A3D002296
:02091A008F1B31
:10091C00E4F51CF51DE51BFD3395E0FCEDAE04A8DC
:10092C001D088005C333CE33CED8F9339281D280E3
:10093C00120B14C280051DE51D7002051CC3940822
:10094C00E51C6480948040CDD281D280120B05C20C
:06095C0080A281E433FFDC
:010962002272
:0F0B3200D281D280120B05C281120B05C2802224
:0F0B4100C281D280120B05D281120B05C2802215
:100ABF00E4FDEF54F0FE7804A2E713D8FBFEEF54E9
:090ACF000FFDEE75F00AA42DFFE5
:010AD80022FB
:100AD900EF75F00A1209DDC454F0FEEF75F00A1241
:080AE90009DDAFF0EE2FFF2242
:020A83008F1BC7
:100A8500E51B75F00A1209DD2430FF120B5FE51B2B
:0F0A950075F00A1209DDAFF0EF2430FF020B5F9E
:0F0B5000C281D280120B05C280120B05D2812206
:100800008F0D8D0E8B0F7FC0120B6D7BFF7A0A79D7
:10081000A4120A3EE510B407005055900822F828AB
:10082000287302083702083F02084702084F0208EF
:100830005702085F0208677BFF7A0A79AA802E7B3D
:10084000FF7A0A79AD80267BFF7A0A79B0801E7B19
:10085000FF7A0A79B380167BFF7A0A79B6800E7B1D
:10086000FF7A0A79B980067BFF7A0A79BC120A3EC0
:100870007F80120B6DAF0D120ABF120A837F2F12F9
:100880000B5FAF0E120ABF120A837F2F120B5FAFEE
:070890000F120ABF020A83E8
:1009A100120B327FD012091A7F0312091A120B326D
:1009B1007FD112091A120A188F18120B50120A1835
:1009C1008F19120B50120A188F1A120B50120A1893
:0C09D100AB07851810AD1AAF1902080022
:100963008F118D128B13120B327FD012091A7F0352
:1009730012091AE5115407FF12091AAF12120AD904
:10098300EF543FFF12091AAF13120AD9EF541FFF96
:0E09930012091AAF14120AD912091A020B2304
:1009DD00C2D530F707B2D563F0FF05F030E70CB2A2
:1009ED00D5F4048463F0FF05F080018430D502F462
:0209FD000422D2
:1009FF00BB010689828A83E0225002E722BBFE02F6
:090A0F00E32289828A83E4932228
:00000001FF
