:0F08830068656C6C6F0062616E676C6F72650008
:100800001208607F851208A07BFF7A08798312089E
:10081000241208747FC31208A07BFF7A087989121A
:04082000082480FE2A
:100860007F381208A07F011208A07F801208A07FA5
:040870000E0208A0CC
:0E0892008FA0D282D283120874C2830208742F
:0E08A0008FA0C282D283120874C28302087431
:0E087400E4FFFE0FBF00010EBE01F8BFF4F559
:010882002253
:100824008B088A09890AAB08AA09A90A120847FF92
:1008340060101208927401250AF50AE43509F509D5
:0308440080E4222B
:030000000208AE45
:0C08AE00787FE4F6D8FD75810A0208008E
:10084700BB010689828A83E0225002E722BBFE02AF
:09085700E32289828A83E49322E2
:00000001FF
