:1009C6006469676974616C20636C6F636B00416D69
:0409D60000506D0060
:100A0100020D0000010C0B010B3B010A380108002B
:10088C001209DA7F82120A2F7BFF7A0979C61209C4
:10089C00EE758901D28C7FC8120A2F7BFF7A0979F9
:1008AC00D41209EE308DFDC28D0508E508640E707A
:1008BC0051F508050AE50A643C7047F50A050BE595
:1008CC000B643C703DF50B050CE50CB40D03750C7D
:1008DC0001E50CB40C15E50E450D700F7BFF7A0984
:1008EC0079D71209EE630EFF630DFFE50E64014527
:1008FC000D700F7BFF7A0979D41209EE630EFF633A
:07090C000DFF120913809D8D
:100913007FC0120A2FE50C75F00A12098BF5092422
:1009230030FF120A21E50C75F00A12098B85F009D4
:10093300E5092430FF120A217F3A120A21E50B75DB
:10094300F00A12098BF5092430FF120A21E50B7511
:10095300F00A12098B85F009E5092430FF120A21F8
:100963007F3A120A21E50A75F00A12098BF5092468
:1009730030FF120A21E50A75F00A12098B85F00986
:08098300E5092430FF020A21FE
:0E0A1200E4FFFE0FBF00010EBE01F8BFF4F5B9
:010A200022B3
:0E0A21008FA0D282D283120A12C283020A125E
:0E0A2F008FA0C282D283120A12C283020A1260
:1009DA007F38120A2F7F01120A2F7F80120A2F7F77
:0409EA000E020A2FC0
:1009EE001209ADFF600C120A21740129F9E43AFADA
:0309FE0080EE2266
:03000000020800F3
:0C080000787FE4F6D8FD75810E020847F1
:10098B00C2D530F707B2D563F0FF05F030E70CB2F4
:10099B00D5F4048463F0FF05F080018430D502F4B4
:0209AB00042224
:1009AD00BB010689828A83E0225002E722BBFE0248
:0909BD00E32289828A83E493227B
:10080C0002088CE493A3F8E493A34003F68001F26E
:10081C0008DFF48029E493A3F85407240CC8C333ED
:10082C00C4540F4420C8834004F456800146F6DFBC
:10083C00E4800B0102040810204080900A01E47E41
:10084C00019360BCA3FF543F30E509541FFEE493B1
:10085C00A360010ECF54C025E060A840B8E493A378
:10086C00FAE493A3F8E493A3C8C582C8CAC583CAA3
:10087C00F0A3C8C582C8CAC583CADFE9DEE780BE5B
:010A110000E4
:00000001FF
