:03000000020800F3
:0C080000787FE4F6D8FD758124020847DB
:100A26006570726F6D2074657374696E67004545F5
:0D0A360050524F4D2054455354494E470037
:100A91001408000000000000000000000000000039
:060AA1000000000000004F
:1009BF00120970E4FDFC7F01FE1209477BFF7A0AE2
:1009CF0079261209E37F147E00120A06120A4312D7
:0409DF00088C80FE02
:0F0AC800D2A0D2A1120B13C2A0120B13C2A122F3
:0F0AD700C2A0D2A1120B13D2A0120B13C2A122E4
:020A5F008F20E6
:100A6100E4F521AF201208DFEF600B0521C3E5217A
:060A71006480948540ED55
:010A7700225C
:0208DF008F2266
:1008E100752480E4F523E522552424FF92A0120B00
:1008F10013D2A1120B13C2A1E52225E0F522052393
:10090100C3E5236480948840DDD2A0120B13D2A1E9
:0A091100120B13A2A0E433FFC2A1F1
:01091B0022B9
:10091C00E4F51FF520F51FE52025E0F520A2A0E465
:10092C00334220D2A1120B13C2A1120B13051FC309
:0A093C00E51F6480948840DFAF20BF
:01094600228E
:0F0AE600C2A0D2A1120B13C2A1120B13D2A022D5
:0F0AF500D2A0120B13D2A1120B13C2A1D2A022B6
:060B1300E4FF0FBF02FC2D
:010B190022B9
:100A4300E4F51C120AC87FA0120A5FE4FF120A5FD2
:0C0A53007BFF7A0A7934120998020AD756
:100998008B1D8A1E891FAB1DAA1EA91F120A78FF6C
:1009A8006010120A5F7401251FF51FE4351EF51E3D
:0709B80080E4E4FF020A5F86
:10088C00E4F51CF51DF51E120AC87FA0120A5FE4E0
:10089C00FF120A5F120AC87FA1120A5F12091C74A8
:1008AC0008251CF8A607051C120AE67407251CF877
:1008BC00E670E9120AF5120AD77F01120AA87B002A
:1008CC007A0079081209E37F0A7E00120A067F0C6F
:0308DC00020AA865
:1009E3008B1F8A208921AB1FAA20A921120A78FF15
:1009F3006010120AB874012521F521E43520F52091
:030A030080E4226A
:100970007F38120AA8120B047F0E120AA8120B0469
:100980007F01120AA8120B047F06120AA8120B0498
:080990007F80120AA8020B048B
:100AA8008FA0C282C281D283120B04C283020B04BC
:100AB8008FA0D282C281D283120B04C283020B049C
:100A0600E4FDFCC3ED9FEC9E5015E4FBFA0BBB0026
:0F0A1600010ABA04F8BBFCF50DBD00010C80E429
:010A250022AE
:100947008E1C8F1D8C1E8D1FE51D6401451C7008B4
:10095700E51F2480FF120AA8E51D6402451C7008E4
:09096700E51F24C0FF120AA822BA
:0E0B0400E4FFFE0FBF00010EBE03F8BFE8F5D0
:010B120022C0
:10080C000209BFE493A3F8E493A34003F68001F23A
:10081C0008DFF48029E493A3F85407240CC8C333ED
:10082C00C4540F4420C8834004F456800146F6DFBC
:10083C00E4800B0102040810204080900A91E47EB1
:10084C00019360BCA3FF543F30E509541FFEE493B1
:10085C00A360010ECF54C025E060A840B8E493A378
:10086C00FAE493A3F8E493A3C8C582C8CAC583CAA3
:10087C00F0A3C8C582C8CAC583CADFE9DEE780BE5B
:010AA700004E
:100A7800BB010689828A83E0225002E722BBFE027C
:090A8800E32289828A83E49322AF
:00000001FF
