:03000000020D5797
:0C0D5700787FE4F6D8FD75811D020B6F5B
:0E0D3B008FA0D282D283120D2CC283020D2C07
:0E0D49008FA0C282D283120D2CC283020D2C09
:0E0D2C00E4FFFE0FBF00010EEF640A4E70F5EB
:010D3A002296
:100D08007F38120D497F01120D497F80120D497FEE
:040D18000E020D4971
:100CE5008B108A118912AB10AA11A912120ABDFF25
:100CF5006010120D3B74012512F512E43511F51142
:030D050080E42265
:100D1C0061646320766C74673D0074656D703D0092
:100C9C00C293D292C2917F017E00120C76D2913017
:100CAC0090FDC292ACB0E4120A087BE37AA5799B62
:050CBC00783C0208F87D
:100B6F00120D08120C9C8F0F8E0E8D0D8C0C7F802A
:100B7F00120D497BFF7A0D791C120CE5AF0FAE0EEB
:100B8F00AD0DAC0C120BCB7F76120D3B7FC0120D4F
:100B9F00497BFF7A0D7926120CE5E4FFFE7DC87CB8
:100BAF0042AB0FAA0EA90DA80C1208F88F0B8E0AD4
:0C0BBF008D098C08120A3C120C2580A73E
:040C2500AB07AA0669
:100C2900E4F510F511FC7D64AF03AE02120AD68F0C
:100C390082AE02AF037C007D64120AD68C108D113E
:100C4900AF82EF2430FF120D3BAE10AF117C007D57
:100C59000A120AD6EF2430FF120D3BAE10AF117CF9
:0D0C6900007D0A120AD6ED2430FF020D3B7B
:080BCB008F138E128D118C10A6
:100BD300120A3C8E188F19EF2430FF120D3B7F2E23
:100BE300120D3BAC18AD19EC120A03A804A905AA0F
:100BF30006AB07AF13AE12AD11AC101208038F177B
:100C03008E168D158C14E4FFFE7DC87C42AB17AAAB
:100C130016A915A8141208F8120A3C8E188F190287
:020C23000CC102
:100CC1008E1A8F1B7C007D0A120AD6EF2430FF1288
:100CD1000D3BAE1AAF1B7C007D0A120AD6ED243003
:040CE100FF020D3BC6
:100C7600E4FDFCC3ED9FEE6480F8EC6480985015AB
:100C8600E4FAFB0BBB00010ABA04F8BBFBF50DBD89
:050C960000010C80DEEE
:010C9B002236
:10080000020AA8E86480F8E933E83360110460F074
:10081000ED33EC337009E8FCE9FDEAFEEBFF22045E
:1008200060DED3EB9FEA9EE99DE8C2E78CF0C2F759
:1008300095F0400CE8CCF8E9CDF9EACEFAEBCFFB25
:10084000120A7385D0F05804700320D5B3E8047001
:10085000075002B2D5020AB292D5EC0460F7E4CC9C
:10086000C0E0C398F8603B94186008400DD0E0FBEE
:10087000020A8AE4FBFAC9FC8028E830E406E4C9ED
:10088000FBE4CAFCE830E305E4C9CACBFCE8540742
:100890006010F8C3E913F9EA13FAEB13FBEC13FC4D
:1008A000D8F130F52FC3E49CFCEF9BFFEE9AFEEDF0
:1008B00099FDD0E0FBEF4E4D4C701222DB03020A93
:1008C000AFEC2CFCEF33FFEE33FEED33FDED30E704
:1008D000EB020A8AEF2BFFEE3AFEED39FDD0E0FB8A
:1008E00050130BBB0003020AB2ED13FDEE13FEEF33
:0808F00013FFEC13FC020A8A5D
:1008F800EC4D6011E8497017ED33EC3304600DE4FA
:10090800FCFFFEFD22E933E8330470F8020AA8125E
:100918000A7358046009E4CC24815006285009025F
:100928000AB2284003020AAFC0E0EB4A7044B9801B
:1009380006D0E0FB020A9EEF4E701CBD8008EBFF5C
:10094800EAFEE9FD80EBE98DF0A4FEE5F00209E19D
:10095800E9CDF9EAFEEBFFEF89F0A4FCE5F0CE89DA
:10096800F0A42EFFE435F0CD89F0A42DFEE435F097
:100978008067EF4E7005BD80D780C3EF8BF0A4ACC5
:10098800F0EE8BF0A42CFCE435F0F8EF8AF0A42C00
:10099800E5F038FCE433CB8DF0A42CFCE5F03BF813
:1009A800EE8AF0A42CFCE5F038F8E433CF89F0A403
:1009B8002CFCE5F038CF3400CE89F0A42FFFE5F009
:1009C8003EFEE433C98DF0A42EFEE5F039CD8AF061
:1009D800A42FFFE5F03EFEE43DFD33D0E0FB5007D9
:1009E8000BBB000F020AB2EC2CFCEF33FFEE33FE18
:0609F800ED33FD020A8A46
:1009FE0075F020800E75F010800575F0087D007E74
:100A0E00007F003392D530D503120B0CEC3340101F
:100A1E00EF33FFEE33FEED33FDEC33FCD5F0ED227C
:0E0A2E00E5F0247EA2D513CC92E7CDCEFF22B8
:100A3C00EDD2E7CD33EC3392D524814006E4FFFEB2
:100A4C00FDFC22FCE4CFCECDCC24E0501174FF8011
:100A5C00EDC3CC13CCCD13CDCE13CECF13CF0470AE
:070A6C00F030D5DE020B0C97
:100A7300E9D2E7C933E833F892D5EDD2E7CD33ECC9
:070A830033FC5002B2D52242
:100A8A00EC30E7100FBF000C0EBE00080DBD0004CD
:100A9A000BEB6014A2D5EB13FCED92E7FD2274FF79
:100AAA00FCFDFEFF22E480F8A2D574FF13FC7D80D2
:030ABA00E480EFE6
:100ABD00BB010689828A83E0225002E722BBFE0237
:090ACD00E32289828A83E493226A
:100AD600C2D5EC30E709B2D5E4C39DFDE49CFCEE3B
:100AE60030E715B2D5E4C39FFFE49EFE120B1AC38E
:100AF600E49DFDE49CFC8003120B1A30D507C3E489
:060B06009FFFE49EFE22A9
:0E0B0C00C3E49FFFE49EFEE49DFDE49CFC22FA
:100B1A00BC000BBE0029EF8DF084FFADF022E4CCBF
:100B2A00F875F008EF2FFFEE33FEEC33FCEE9DEC88
:100B3A00984005FCEE9DFE0FD5F0E9E4CEFD22EDCE
:100B4A00F8F5F0EE8420D21CFEADF075F008EF2F18
:100B5A00FFED33FD4007985006D5F0F222C398FD09
:050B6A000FD5F0EA22A6
:00000001FF
